:100000000C9449000C9491010C9424010C9410015F
:100010000C9491010C9491010C9491010C94910118
:100020000C9491010C9491010C9491010C94910108
:100030000C9491010C9491010C9491010C949101F8
:100040000C9491010C9491010C9491010C949101E8
:100050000C9491010C9491010C9491010C949101D8
:100060000C9491010C9491010C9491010C949101C8
:100070000C9491010C9491010C9491010C949101B8
:100080000C9491010C9491010C94910101000104D4
:10009000800011241FBECFEFD0E1DEBFCDBFECE862
:1000A000F0E040E019C0B791A791379127910791EF
:1000B00007FD0EC097918791EF01F92FE82F0BBF35
:1000C00007900D92A217B307D9F7FE011BBE04C01B
:1000D0001D92A217B307E1F7E139F40721F70E9457
:0A00E000D5000C947300F894FFCFD4
:1000EA0048656C6C6F20746865726500426F747441
:0800FA006F6D2074657874003D
:1001020020202020202020202020202020202020ED
:0101120000EC
:100114001F93CF93DF93CDB7DEB761970FB6F894F3
:10012400DEBF0FBECDBF8FEF84BB15BA10E215BB87
:100134000E94380115BB0E94380180E885BB0E94EB
:10014400380115BA0E94380180EF85BB0E9438013E
:1001540015BA0E94380180E685BB0E94380122E06E
:1001640031E040E081E1F901DE011196742F0E9433
:100174006F0180E090E00E948A01CE0101960E9406
:100184007D0188E290E00E948A01CE0101960E94DE
:100194007D0161960FB6F894DEBF0FBECDBFDF912F
:0601A400CF911F910895A8
:1001AA00CF93DF93CDB7DEB768970FB6F894DEBF6B
:1001BA000FBECDBF0E948A002AEE30E040E08CE0FC
:1001CA00F901DE011196742F0E946F0126EF30E0CB
:1001DA0040E08CE0F901DE011D96742F0E946F0148
:1001EA0080E090E00E948A01CE0101960E948E0171
:1001FA0088E290E00E948A01CE010D960E948E014B
:10020A0081E090E068960FB6F894DEBF0FBECDBFCE
:06021A00DF91CF91089571
:100220001F920F920FB60F9211248F939F9381E02C
:1002300090E090930101809300019F918F910F9026
:080240000FBE0F901F901895EE
:100248001F920F920FB60F9211248F939F9381E004
:1002580090E090930301809302019F918F910F90FA
:080268000FBE0F901F901895C6
:1002700085B3886085BB8FEC97E00197F1F700C0EC
:10028000000085B3877F85BB8FEC97E00197F1F77E
:0602900000C0000008950B
:10029600CF93C82F85BB85B38B7F85BB0E94380162
:1002A600C295C07FC5BB85B38B7F85BB0E943801D5
:0402B600CF91089547
:1002BA00CF93C82F85BB85B3846085BB0E94380164
:1002CA00C295C07FC5BB85B3846085BB0E943801D7
:0402DA00CF91089523
:1002DE00992777FD06C07BBF07900D920197E1F736
:0C02EE00089501900D920197E1F708952A
:1002FA00CF93DF93EC0103C00E945D0121968881B0
:0A030A008111FACFDF91CF91089521
:0803140080680E944B0108956E
:06031C000E947D0108951E
:040322000C94000037
:00000001FF
