:100000000C9449000C948E010C9421010C940D0168
:100010000C948E010C948E010C948E010C948E0124
:100020000C948E010C948E010C948E010C948E0114
:100030000C948E010C948E010C948E010C948E0104
:100040000C948E010C948E010C948E010C948E01F4
:100050000C948E010C948E010C948E010C948E01E4
:100060000C948E010C948E010C948E010C948E01D4
:100070000C948E010C948E010C948E010C948E01C4
:100080000C948E010C948E010C948E0101000104DD
:10009000800011241FBECFEFD0E1DEBFCDBFECE862
:1000A000F0E040E019C0B791A791379127910791EF
:1000B00007FD0EC097918791EF01F92FE82F0BBF35
:1000C00007900D92A217B307D9F7FE011BBE04C01B
:1000D0001D92A217B307E1F7E139F40721F70E9457
:0A00E000D2000C947300F894FFCFD7
:1000EA0048656C6C6F00426F74746F6D207465782C
:0200FA00740090
:1000FC0020202020202020202020202020202020F4
:01010C0000F2
:10010E001F93CF93DF93CDB7DEB761970FB6F894F9
:10011E00DEBF0FBECDBF8FEF84BB15BA10E215BB8D
:10012E000E94350115BB0E94350180E885BB0E94F7
:10013E00350115BA0E94350180EF85BB0E9435014D
:10014E0015BA0E94350180E685BB0E9435012CEF61
:10015E0030E040E081E1F901DE011196742F0E943A
:10016E006C0180E090E00E948701CE0101960E9412
:10017E007A0188E290E00E948701CE0101960E94EA
:10018E007A0161960FB6F894DEBF0FBECDBFDF9138
:06019E00CF911F910895AE
:1001A400CF93DF93CDB7DEB762970FB6F894DEBF77
:1001B4000FBECDBF0E9487002AEE30E040E086E00B
:1001C400F901DE011196742F0E946C0120EF30E0DA
:1001D40040E08CE0F901DE011796742F0E946C0157
:1001E40080E090E00E948701CE0101960E948B017D
:1001F40088E290E00E948701CE0107960E948B015D
:1002040081E090E062960FB6F894DEBF0FBECDBFDA
:06021400DF91CF91089577
:10021A001F920F920FB60F9211248F939F9381E032
:10022A0090E090930101809300019F918F910F902C
:08023A000FBE0F901F901895F4
:100242001F920F920FB60F9211248F939F9381E00A
:1002520090E090930301809302019F918F910F9000
:080262000FBE0F901F901895CC
:10026A0085B3886085BB8FEC97E00197F1F700C0F2
:10027A00000085B3877F85BB8FEC97E00197F1F784
:06028A0000C00000089511
:10029000CF93C82F85BB85B38B7F85BB0E9435016B
:1002A000C295C07FC5BB85B38B7F85BB0E943501DE
:0402B000CF9108954D
:1002B400CF93C82F85BB85B3846085BB0E9435016D
:1002C400C295C07FC5BB85B3846085BB0E943501E0
:0402D400CF91089529
:1002D800992777FD06C07BBF07900D920197E1F73C
:0C02E800089501900D920197E1F7089530
:1002F400CF93DF93EC0103C00E945A0121968881B9
:0A0304008111FACFDF91CF91089527
:08030E0080680E944801089577
:060316000E947A01089527
:04031C000C9400003D
:00000001FF
