:100000000C9446000C949C000C9469000C947B00AA
:100010000C949C000C949C000C949C000C949C00F0
:100020000C949C000C949C000C949C000C949C00E0
:100030000C949C000C949C000C949C000C949C00D0
:100040000C949C000C949C000C949C000C949C00C0
:100050000C949C000C949C000C949C000C949C00B0
:100060000C949C000C949C000C949C000C949C00A0
:100070000C949C000C949C000C949C000C949C0090
:100080000C949C000C949C000C949C0011241FBEAA
:10009000CFEFD0E1DEBFCDBF0E9452000C945000E4
:0400A000F894FFCF02
:1000A40080EF81BB8FEF82B981E083B9EAE6F0E0AB
:1000B40080818C63808389B7866089BF789482B39A
:0E00C400805882BB84EF91E00E948D00F8CF3F
:1000D2001F920F920FB60F9211248F9381B1803825
:1000E20019F081B1880F83B98F910F900FBE0F90D5
:0400F2001F901895AE
:1000F6001F920F920FB60F9211248F9381B1813008
:1001060019F081B1869583B98F910F900FBE0F902C
:040116001F90189589
:10011A0020E030E008C0EFECF7E03197F1F700C0DB
:0E012A0000002F5F3F4F28173907ACF30895F0
:040138000C94000023
:00000001FF
