:100000000C944C000C94E5000C94B5000C94A100E9
:100010000C94E5000C94E5000C94E5000C94E500CC
:100020000C94E5000C94E5000C94E5000C94E500BC
:100030000C94E5000C94E5000C94E5000C94E500AC
:100040000C94E5000C94E5000C94E5000C94E5009C
:100050000C94E5000C94E5000C94E5000C94E5008C
:100060000C94E5000C94E5000C94E5000C94E5007C
:100070000C94E5000C94E5000C94E5000C94E5006C
:100080000C94E5000C94E5000C94E5000100017C63
:100090000001CE017C01828011241FBECFEFD0E190
:1000A000DEBFCDBFECE8F0E040E019C0B791A7910A
:1000B00037912791079107FD0EC097918791EF0126
:1000C000F92FE82F0BBF07900D92A217B307D9F7AE
:1000D000FE011BBE04C01D92A217B307E1F7E83969
:1000E000F40721F70E9478000C947600F894FFCF73
:1000F0008FEF82B980918001909181010E94D80098
:10010000C0E0D0E00EC0FE01EE0FFF1FEC0FFD1FA0
:10011000E050FF4F808183B9818192810E94C900A4
:100120002196FE01EE0FFF1FEC0FFD1FE050FF4F69
:1001300081819281892B39F781E090E00E94C9008A
:02014000D9CF15
:100142001F920F920FB60F9211248F939F9381E00B
:1001520090E090937D0180937C019F918F910F900D
:080162000FBE0F901F901895CD
:10016A001F920F920FB60F9211248F939F9381E0E3
:10017A0090E090937F0180937E019F918F910F90E1
:08018A000FBE0F901F901895A5
:1001920020E030E008C0EFECF7E03197F1F700C063
:0E01A20000002F5F3F4F28173907ACF3089578
:1001B0008031910530F4FC01E459FE4F808183B910
:0A01C000089580917A0183B9089533
:0401CA000C94000091
:1001CE0000640001640002640004640010640020F6
:1001DE006400406400806400806400406400206419
:1001EE0000106400046400026400016400006400F6
:1001FE00AA3200553200AA3200553200AA320055FA
:10020E0032000064008164004264002464001864BB
:10021E00001864002464004264008164000FC8006A
:0C022E00F0C8000FC800F0C8000000007D
:10023A003F065B4F666D7D077F67777C395E797114
:00000001FF
