:100000000C9449000C9495010C9428010C94140153
:100010000C9495010C9495010C9495010C94950108
:100020000C9495010C9495010C9495010C949501F8
:100030000C9495010C9495010C9495010C949501E8
:100040000C9495010C9495010C9495010C949501D8
:100050000C9495010C9495010C9495010C949501C8
:100060000C9495010C9495010C9495010C949501B8
:100070000C9495010C9495010C9495010C949501A8
:100080000C9495010C9495010C94950101000104C8
:10009000800011241FBECFEFD0E1DEBFCDBFECE862
:1000A000F0E040E019C0B791A791379127910791EF
:1000B00007FD0EC097918791EF01F92FE82F0BBF35
:1000C00007900D92A217B307D9F7FE011BBE04C01B
:1000D0001D92A217B307E1F7E139F40721F70E9457
:0A00E000D9000C947300F894FFCFD0
:1000EA0048656C6C6F2074686572652C206D792088
:1000FA0000647564652E20576861742773207570D3
:01010A0000F4
:10010B0020202020202020202020202020202020E4
:01011B0000E3
:10011C001F93CF93DF93CDB7DEB761970FB6F894EB
:10012C00DEBF0FBECDBF8FEF84BB15BA10E215BB7F
:10013C000E943C0115BB0E943C0180E885BB0E94DB
:10014C003C0115BA0E943C0180EF85BB0E943C012A
:10015C0015BA0E943C0180E685BB0E943C012BE055
:10016C0031E040E081E1F901DE011196742F0E942B
:10017C00730180E090E00E948E01CE0101960E94F6
:10018C00810188E290E00E948E01CE0101960E94CE
:10019C00810161960FB6F894DEBF0FBECDBFDF9123
:0601AC00CF911F910895A0
:1001B200CF93DF93CDB7DEB7A1970FB6F894DEBF2A
:1001C2000FBECDBF0E948E002AEE30E040E081E1FA
:1001D200F901DE011196742F0E9473012BEF30E0BA
:1001E20040E080E1F901DE015296742F0E94730112
:1001F20080E090E00E948E01CE0101960E94920161
:1002020088E290E00E948E01CE0142960E94920105
:1002120081E090E0A1960FB6F894DEBF0FBECDBF8D
:06022200DF91CF91089569
:100228001F920F920FB60F9211248F939F9381E024
:1002380090E090930101809300019F918F910F901E
:080248000FBE0F901F901895E6
:100250001F920F920FB60F9211248F939F9381E0FC
:1002600090E090930301809302019F918F910F90F2
:080270000FBE0F901F901895BE
:1002780085B3886085BB8FEC97E00197F1F700C0E4
:10028800000085B3877F85BB8FEC97E00197F1F776
:0602980000C00000089503
:10029E00CF93C82F85BB85B38B7F85BB0E943C0156
:1002AE00C295C07FC5BB85B38B7F85BB0E943C01C9
:0402BE00CF9108953F
:1002C200CF93C82F85BB85B3846085BB0E943C0158
:1002D200C295C07FC5BB85B3846085BB0E943C01CB
:0402E200CF9108951B
:1002E600992777FD06C07BBF07900D920197E1F72E
:0C02F600089501900D920197E1F7089522
:10030200CF93DF93EC0103C00E94610121968881A3
:0A0312008111FACFDF91CF91089519
:08031C0080680E944F01089562
:060324000E948101089512
:04032A000C9400002F
:00000001FF
