:100000000C9446000C9474000C9483000C949200A1
:100010000C9492000C9492000C9492000C94920018
:100020000C9492000C9492000C9492000C94920008
:100030000C9492000C9492000C9492000C949200F8
:100040000C9492000C9492000C9492000C949200E8
:100050000C9492000C9492000C9492000C949200D8
:100060000C9492000C9492000C9492000C949200C8
:100070000C9492000C9492000C9492000C949200B8
:100080000C9492000C9492000C94920011241FBEC8
:10009000CFEFD0E1DEBFCDBF0E9452000C945000E4
:0400A000F894FFCF02
:1000A40080EF81BBEAE6F0E080818B60808389B7D2
:1000B400836089BF789482B3805882BB84EF91E0D7
:0600C4000E946500F8CF68
:1000CA0020E030E008C0EFECF7E03197F1F700C02C
:0E00DA0000002F5F3F4F28173907ACF3089541
:1000E8001F920F920FB60F9211248F9382B38062E2
:0E00F80082BB8F910F900FBE0F901F90189536
:100106001F920F920FB60F9211248F9382B38F7D99
:0E01160082BB8F910F900FBE0F901F90189517
:040124000C94000037
:00000001FF
