:100000000C9449000C94A0040C94A0040C94A0043B
:100010000C94A0040C94A0040C94A0040C94A004D0
:100020000C94A0040C94A0040C942A040C94A00436
:100030000C94A0040C94A0040C94A0040C94A004B0
:100040000C94A0040C94A0040C94A0040C94A004A0
:100050000C94A0040C94A0040C94A0040C94A00490
:100060000C94A0040C94A0040C94A0040C94A00480
:100070000C94A0040C94A0040C94A0040C94A00470
:100080000C94A0040C94A0040C94A00401000102A0
:10009000800011241FBECFEFD0E1DEBFCDBFECE862
:1000A000F0E040E019C0B791A791379127910791EF
:1000B00007FD0EC097918791EF01F92FE82F0BBF35
:1000C00007900D92A217B307D9F7FE011BBE04C01B
:1000D0001D92A217B307E1F7E139F40721F70E9457
:0A00E00051030C947300F894FFCF55
:1000EA002020202020202020202020202020202006
:0100FA000005
:0500FB00256420200037
:100100002F923F924F926F927F928F929F92AF92D7
:10011000BF92CF92DF92EF92FF920F931F93CF93F4
:10012000DF93CDB7DEB762970FB6F894DEBF0FBE90
:10013000CDBF6C013A01862E7901FC011086178231
:10014000848181FFEBC19E012F5F3F4F3D872C874C
:10015000C901A0E8888B998BAA8B9FE3992EF301A4
:10016000582D0E949204862F662309F4D3C1482D8E
:1001700093012F5F3F4F4F4F653219F03901842EA5
:100180000BC0F901542F0E949204862F92E0690E51
:10019000711C811C653229F4B60190E00E948F0326
:1001A000DECFB12C00E010E01032A0F48B3269F009
:1001B00030F4803259F0833269F410612CC08D32F2
:1001C00039F0803339F4116026C01260146023C006
:1001D000186021C017FD2AC090ED980F9A3078F46E
:1001E00016FF06C0AAE0BA9E900D1124B92E13C0C6
:1001F000EAE00E9F900D1124092F10620CC08E3280
:1002000021F416FD87C1106406C08C3611F4106805
:1002100002C0883659F4F301582D0E949204862FAB
:10022000FFEF6F1A7F0A8F0A6111BECF982F9F7D53
:100230009554933028F424E0E20EF11C99820FC00B
:10024000833631F0833791F0833509F064C027C0DD
:10025000F7018081898397012E5F3F4F79012888BC
:1002600039884A88AA24A394B12C17C0A7014D5FEE
:100270005F4F5F874E87F70120803180428016FFF5
:1002800003C04B2D50E002C04FEF5FEF842DB10152
:100290000E94FB035C01EE84FF841F7718C0970166
:1002A0002D5F3F4F3F872E87F701208031804280AE
:1002B00016FF03C04B2D50E002C04FEF5FEF842DBF
:1002C000B1010E94FB035C011068EE84FF8413FD02
:1002D0001EC0802F90E0A816B906C8F4B60180E2CF
:1002E00090E00E948F030150F4CFF101542D0E9441
:1002F0009204862FFFEF2F1A3F0A4F0AB60190E0B3
:100300000E948F030111015021E0A21AB108A1142B
:10031000B10459F7F5C0843611F0893671F5F7014B
:1003200017FF08C0608171818281938197012C5FE2
:100330003F4F09C060817181072E000C880B990B1B
:1003400097012E5F3F4F79011F76312E97FF0AC02C
:1003500090958095709561957F4F8F4F9F4F312F6E
:100360003068332E2AE030E0AE014F5F5F4F0E94CD
:10037000A802482E4C85441A4AC0853729F41F7EAE
:10038000A12E2AE030E025C0512F597FA52E8F36AF
:10039000C1F018F4883579F0BDC0803719F088377E
:1003A00021F0B8C0852F8061A82EA4FE0DC09A2D23
:1003B0009460A92E09C014FF0AC0A52FA660AA2E1A
:1003C00006C028E030E005C020E130E002C020E1B6
:1003D00032E0F701A7FE08C06081718182819381BC
:1003E000A7014C5F5F4F07C06081718180E090E0A2
:1003F000A7014E5F5F4F7A01AE014F5F5F4F0E94D2
:10040000A802482E5C85451A8A2D8F77382E36FE35
:100410000DC0932D9E7FA92E4B1458F434FE0BC0B3
:1004200032FC09C0A32DAE7EAA2E05C0142DA32C2C
:1004300003C0142D01C01B2DA4FE0EC0FE01E40D4F
:10044000F11D8081803321F4EA2DE97EAE2E08C0B3
:10045000A2FE05C01E5F04C08A2D867809F01F5FCA
:10046000A3FC11C0A0FE06C0101788F4040DB02E26
:10047000B11A0EC0101760F4B60180E290E00E943D
:100480008F031F5FF7CF101718F4011B02C0B42CA5
:1004900000E0A4FE10C0B60180E390E00E948F034C
:1004A000A2FE17C0A1FC03C088E790E002C088E567
:1004B00090E0B6010CC08A2D867859F0A1FE02C0EA
:1004C0008BE201C080E2A7FC8DE2B60190E00E94C1
:1004D0008F034B1438F4B60180E390E00E948F0341
:1004E000BA94F7CF4A94E1E0F0E0EC0FFD1FE40D81
:1004F000F11D8081B60190E00E948F034110F2CF80
:10050000002309F42CCEB60180E290E00E948F0314
:100510000150F6CFF6018781908502C08FEF9FEFE3
:1005200062960FB6F894DEBF0FBECDBFDF91CF91BC
:100530001F910F91FF90EF90DF90CF90BF90AF9001
:100540009F908F907F906F904F903F902F90089545
:10055000FA01AA27283051F1203181F1E8946F93F4
:100560006E7F6E5F7F4F8F4F9F4FAF4FB1E03ED09A
:10057000B4E03CD0670F781F891F9A1FA11D680F38
:10058000791F8A1F911DA11D6A0F711D811D911D6B
:10059000A11D20D009F468943F912AE0269F1124E0
:1005A0003019305D3193DEF6CF010895462F477044
:1005B000405D4193B3E00FD0C9F7F6CF462F4F709F
:1005C000405D4A3318F0495D31FD4052419302D0FD
:1005D000A9F7EACFB4E0A6959795879577956795A3
:1005E000BA95C9F700976105710508959B01AC01A3
:1005F0000A2E06945795479537952795BA95C9F7CA
:0C060000620F731F841F951FA01D08953A
:10060C001F93CF93DF93CDB7DEB761970FB6F894F6
:10061C00DEBF0FBECDBF8FEF84BB15BA10E215BB8A
:10062C000E94170415BB0E94170480E885BB0E942A
:10063C00170415BA0E94170480EF85BB0E9417049B
:10064C0015BA0E94170480E685BB0E9417042AEE97
:10065C0030E040E081E1F901DE011196742F0E9437
:10066C00700480E090E00E949904CE0101960E94F3
:10067C007E0488E290E00E949904CE0101960E94CB
:10068C007E0461960FB6F894DEBF0FBECDBFDF912E
:06069C00CF911F910895AB
:1006A200CF93DF9300D000D0CDB7DEB781B38F7781
:1006B20081BB8FEF8ABB0E948B040E94060380E0FD
:1006C20090E00E949904E12CF12C84B58BBB84B597
:1006D200082F10E0E016F106E1F01F928F938BEFE6
:1006E20090E0A0E0AF939F938F93CE0101967C019F
:1006F2009F938F930E94CB0380E090E00E94990425
:10070200C7010E949D040FB6F894DEBF0FBECDBF95
:0C071200780184E690E00E946104D7CFDB
:10071E000F931F93CF93DF93FB01248121FD03C021
:10072E008FEF9FEF2CC022FF16C047815085258189
:10073E0036814217530744F4A081B1819D012F5F8A
:10074E003F4F318320838C93278130852F5F3F4F1E
:10075E003087278314C08B01EC01FB010184F285E5
:10076E00E02D0995892BE1F6D80117968D919C9174
:10077E001897019618969C938E931797CE01DF913A
:08078E00CF911F910F91089516
:100796000F931F93CF93DF93CDB7DEB72F970FB687
:1007A600F894DEBF0FBECDBF0E891F8986E08D830C
:1007B6001A8309838FEF9FE79F838E839E01255EB1
:1007C6003F4F488D598D6A8DCE0101960E9480005B
:1007D600E885F985E00FF11F10822F960FB6F89481
:1007E600DEBF0FBECDBFDF91CF911F910F91089550
:1007F600CF92DF92EF926B01E82E9A01A82FCB01E0
:100806002115310531F48C199D09EF90DF90CF90B9
:100816000895FC015A2F0E9492046623A1F30196C3
:08082600A11D21503109ECCFA6
:10082E0085B3886085BB8FEC97E00197F1F700C028
:10083E00000085B3877F85BB8FEC97E00197F1F7BA
:06084E0000C00000089547
:100854001F920F920FB60F9211248F939F93809142
:1008640000019091010184BD9F918F910F900FBE63
:060874000F901F90189583
:10087A00CF93C82F85BB85B38B7F85BB0E94170496
:10088A00C295C07FC5BB85B38B7F85BB0E94170409
:04089A00CF9108955D
:10089E00CF93C82F85BB85B3846085BB0E94170498
:1008AE00C295C07FC5BB85B3846085BB0E9417040B
:0408BE00CF91089539
:1008C20020E030E008C0EFECF7E03197F1F700C02C
:0E08D20000002F5F3F4F28173907ACF3089541
:1008E000992777FD06C07BBF07900D920197E1F72E
:0C08F000089501900D920197E1F7089522
:1008FC00CF93DF93EC0103C00E944F0421968881B3
:0A090C008111FACFDF91CF91089519
:0E09160087B7806487BF789487E085BD089519
:0E09240057FD03C05BBF679108956081089581
:0809320080680E943D04089555
:06093A000E947E040895F6
:040940000C94000013
:00000001FF
