:100000000C944A000C94F8000C94F8000C94F8003E
:100010000C94F8000C94F8000C94F8000C94F80080
:100020000C94F8000C94F8000C94F8000C94F80070
:100030000C94F8000C94F8000C94F8000C94F80060
:100040000C94F8000C94F8000C94F8000C94F80050
:100050000C94F8000C94F8000C94F8000C94F80040
:100060000C94F8000C94F8000C94F8000C94F80030
:100070000C94F8000C94F8000C94F8000C94F80020
:100080000C94F8000C94F8000C94F80001000102A4
:100090000001F40011241FBECFEFD0E1DEBFCDBFC1
:1000A000ECE8F0E040E019C0B791A79137912791B3
:1000B000079107FD0EC097918791EF01F92FE82F67
:1000C0000BBF07900D92A217B307D9F7FE011BBE15
:1000D00004C01D92A217B307E1F7E339F40721F733
:0C00E0000E94DF000C947400F894FFCF25
:1000EC0084E085BB879B06C08AEA90E0909301016F
:1000FC0080930001869B06C08DEB90E090930101EC
:10010C0080930001859B0AC088EE93E00E94D0008A
:0E011C0085E990E09093010180930001089521
:10012A0088E085BB879B06C08AEA90E0909301012C
:10013A0080930001869902C0859B06C08DEE90E0EF
:0A014A0090930101809300010895D5
:1001540081E085BB869B06C08DEB90E09093010106
:1001640080930001859B06C086E790E0909301018F
:06017400809300010895D4
:10017A0082E085BB879B06C08AEA90E090930101E2
:10018A0080930001859B06C086E790E09093010169
:06019A00809300010895AE
:1001A00020E030E008C0EFECF7E03197F1F700C055
:0E01B00000002F5F3F4F28173907ACF308956A
:1001BE008FE181BB8FEF84BBE0910001F0910101D3
:0C01CE00099581E090E00E94D000F6CF7F
:1001DA0080E185BB879B06C08AEA90E09093010183
:0601EA008093000108955E
:0401F0000C9400006B
:0201F400AA005F
:00000001FF
