:100000000C9446000C9470000C9470000C947000DA
:100010000C9470000C9470000C9470000C947000A0
:100020000C9470000C9470000C9470000C94700090
:100030000C9470000C9470000C9470000C94700080
:100040000C9470000C9470000C9470000C94700070
:100050000C9470000C9470000C9470000C94700060
:100060000C9470000C9470000C9470000C94700050
:100070000C9470000C9470000C9470000C94700040
:100080000C9470000C9470000C94700011241FBE2E
:10009000CFEFD0E1DEBFCDBF0E9461000C945000D5
:0400A000F894FFCF02
:1000A40020E030E008C0EFECF7E03197F1F700C052
:0E00B40000002F5F3F4F28173907ACF3089567
:1000C2008FEF81BB8AEA82BB8AEF90E00E945200E6
:0E00D20085E582BB8AEF90E00E945200F3CFDA
:0400E0000C9400007C
:00000001FF
