:100000000C9446000C9475000C9475000C947500CB
:100010000C9475000C9475000C9475000C9475008C
:100020000C9475000C9475000C9475000C9475007C
:100030000C9475000C9475000C9475000C9475006C
:100040000C9475000C9475000C9475000C9475005C
:100050000C9475000C9475000C9475000C9475004C
:100060000C9475000C9475000C9475000C9475003C
:100070000C9475000C9475000C9475000C9475002C
:100080000C9475000C9475000C94750011241FBE1F
:10009000CFEFD0E1DEBFCDBF0E9452000C945000E4
:0400A000F894FFCF02
:1000A4008FEF81BB8EEF84BB989B0CC080E882BB32
:1000B4008AEF90E00E94660012BA8AEF90E00E94F4
:0800C4006600F2CF12BAF0CF82
:1000CC0020E030E008C0EFECF7E03197F1F700C02A
:0E00DC0000002F5F3F4F28173907ACF308953F
:0400EA000C94000072
:00000001FF
