:100000000C9446000C9478000C9478000C947800C2
:100010000C9478000C9478000C9478000C94780080
:100020000C9478000C9478000C9478000C94780070
:100030000C9478000C9478000C9478000C94780060
:100040000C9478000C9478000C9478000C94780050
:100050000C9478000C9478000C9478000C94780040
:100060000C9478000C9478000C9478000C94780030
:100070000C9478000C9478000C9478000C94780020
:100080000C9478000C9478000C94780011241FBE16
:10009000CFEFD0E1DEBFCDBF0E9452000C945000E4
:0400A000F894FFCF02
:1000A400109261008FEF8ABB0E94730086B1806456
:1000B40086B93699FECF85B18BBB84EF91E00E945F
:0400C4006400F4CF11
:1000C80020E030E008C0EFECF7E03197F1F700C02E
:0E00D80000002F5F3F4F28173907ACF3089543
:0A00E60083EE87B986E886B9089515
:0400F0000C9400006C
:00000001FF
