:100000000C9446000C9474000C9474000C947400CE
:100010000C9474000C9474000C9474000C94740090
:100020000C9474000C9474000C9474000C94740080
:100030000C9474000C9474000C9474000C94740070
:100040000C9474000C9474000C9474000C94740060
:100050000C9474000C9474000C9474000C94740050
:100060000C9474000C9474000C9474000C94740040
:100070000C9474000C9474000C9474000C94740030
:100080000C9474000C9474000C94740011241FBE22
:10009000CFEFD0E1DEBFCDBF0E9461000C945000D5
:0400A000F894FFCF02
:1000A40020E030E008C0EFECF7E03197F1F700C052
:0E00B40000002F5F3F4F28173907ACF3089567
:1000C200109261008FEF8ABB87BB0E946F0085B1DF
:0C00D2008BBB84E690E00E945200F9CF46
:0A00DE0083E687B986EE86B908951F
:0400E8000C94000074
:00000001FF
