:100000000C9446000C9476000C9476000C947600C8
:100010000C9476000C9476000C9476000C94760088
:100020000C9476000C9476000C9476000C94760078
:100030000C9476000C9476000C9476000C94760068
:100040000C9476000C9476000C9476000C94760058
:100050000C9476000C9476000C9476000C94760048
:100060000C9476000C9476000C9476000C94760038
:100070000C9476000C9476000C9476000C94760028
:100080000C9476000C9476000C94760011241FBE1C
:10009000CFEFD0E1DEBFCDBF0E9452000C945000E4
:0400A000F894FFCF02
:1000A400109261008FEF8ABB87BB0E94710084B1FC
:1000B40088BB85B18BBB84E690E00E946200F7CFD9
:1000C40020E030E008C0EFECF7E03197F1F700C032
:0E00D40000002F5F3F4F28173907ACF3089547
:0A00E20081E687B986EE86B908951D
:0400EC000C94000070
:00000001FF
