:100000000C9446000C94D4000C94D4000C94D400AE
:100010000C94D4000C94D4000C94D4000C94D40010
:100020000C94D4000C94D4000C94D4000C94D40000
:100030000C94D4000C94D4000C94D4000C94D400F0
:100040000C94D4000C94D4000C94D4000C94D400E0
:100050000C94D4000C94D4000C94D4000C94D400D0
:100060000C94D4000C94D4000C94D4000C94D400C0
:100070000C94D4000C94D4000C94D4000C94D400B0
:100080000C94D4000C94D4000C94D40011241FBE02
:10009000CFEFD0E1DEBFCDBF0E9452000C945000E4
:0400A000F894FFCF02
:1000A400CF9381E087BB0E94BA000E948E00C1E01A
:1000B40005C060E08C2F0E947B00CF5FC530C8F381
:1000C40088EE93E00E949F00C1E009C06C2F8C2F42
:1000D4000E947B0088EE93E00E949F00CF5FC530B2
:1000E400A8F388EE93E00E949F0081E090E0CF9116
:0200F40008956D
:1000F600CF93DF93D82FC62F80E00E94AE008D2FBE
:100106000E94D0008C2F0E94D00080E00E94C50083
:06011600DF91CF91089576
:10011C006FEF89E00E947B006FE08AE00E947B0019
:10012C0063E08BE00E947B0061E08CE00E947B002E
:02013C00089524
:10013E0020E030E008C0EFECF7E03197F1F700C0B7
:0E014E0000002F5F3F4F28173907ACF30895CC
:10015C0098B321E030E002C0220F331F8A95E2F7FA
:08016C002095292328BB08950A
:100174008FEF87BB87B3877F87BB88B3816088BBDA
:0601840082E58DB908952B
:10018A0098B321E030E002C0220F331F8A95E2F7CC
:06019A00292B28BB08958B
:0801A0008FB9779BFECF089593
:0401A8000C940000B3
:00000001FF
