:100000000C9446000C9441010C9441010C94410164
:100010000C9441010C9441010C9441010C94410158
:100020000C9441010C9441010C9441010C94410148
:100030000C9441010C9441010C9441010C94410138
:100040000C9441010C9441010C9441010C94410128
:100050000C9441010C9441010C9441010C94410118
:100060000C9441010C9441010C9441010C94410108
:100070000C9441010C9441010C9441010C944101F8
:100080000C9441010C9441010C94410111241FBEB8
:10009000CFEFD0E1DEBFCDBF0E9493000C945000A3
:0400A000F894FFCF02
:1000A400EF92FF920F931F93CF93DF93803127E258
:1000B400920780F5EC010AE010E0B8010E94C0004C
:1000C400682F81E30E94E8000F2EF4E6EF2EF12C56
:1000D400F02DCE01B7010E94C000B8010E94C000FB
:1000E40082E30E94E80008EE13E0CE01B8010E940A
:1000F400C000B7010E94C00083E30E94E800CE0163
:1001040060E177E20E94C000B8010E94C00084E36D
:100114000E94E800DF91CF911F910F91FF90EF9023
:0201240008953C
:10012600CF93DF9381E087BB0E9427010E94FB00EB
:10013600C1E005C060E08C2F0E94E800CF5FC530AB
:10014600C8F388EE93E00E940C01C0E0D0E008C03E
:10015600CE010E9452008AE090E00E940C01219696
:10016600C03187E2D807A4F388EE93E00E940C0121
:0A01760081E090E0DF91CF91089541
:1001800097FB072E16F4009407D077FD09D00E9444
:10019000D40007FC05D03EF4909581959F4F0895BB
:0801A000709561957F4F0895F1
:1001A800AA1BBB1B51E107C0AA1FBB1FA617B70795
:1001B80010F0A61BB70B881F991F5A95A9F78095B1
:0801C8009095BC01CD010895E2
:1001D000CF93DF93D82FC62F80E00E941B018D2F75
:1001E0000E943D018C2F0E943D0180E00E9432015F
:0601F000DF91CF9108959C
:1001F6006FEF89E00E94E80064E08AE00E94E80070
:1002060063E08BE00E94E80061E08CE00E94E80079
:02021600089549
:1002180020E030E008C0EFECF7E03197F1F700C0DC
:0E02280000002F5F3F4F28173907ACF30895F1
:1002360098B321E030E002C0220F331F8A95E2F71F
:080246002095292328BB08952F
:10024E008FEF87BB87B3877F87BB88B3816088BBFF
:06025E0082E58DB9089550
:1002640098B321E030E002C0220F331F8A95E2F7F1
:06027400292B28BB0895B0
:08027A008FB9779BFECF0895B8
:040282000C940000D8
:00000001FF
