:100000000C9446000C94F1000C94F1000C94F10057
:100010000C94F1000C94F1000C94F1000C94F1009C
:100020000C94F1000C94F1000C94F1000C94F1008C
:100030000C94F1000C94F1000C94F1000C94F1007C
:100040000C94F1000C94F1000C94F1000C94F1006C
:100050000C94F1000C94F1000C94F1000C94F1005C
:100060000C94F1000C94F1000C94F1000C94F1004C
:100070000C94F1000C94F1000C94F1000C94F1003C
:100080000C94F1000C94F1000C94F10011241FBEAB
:10009000CFEFD0E1DEBFCDBF0E9452000C945000E4
:0400A000F894FFCF02
:1000A400CF9381E087BB0E94D7000E948B00C1E000
:1000B4000DC080E00E94CB008C2F0E94ED0080E0F8
:1000C4000E94ED0080E00E94E200CF5FC53088F31B
:1000D40088EE93E00E94BC00C1E011C080E00E9461
:1000E400CB008C2F0E94ED008C2F0E94ED0080E04D
:1000F4000E94E20088EE93E00E94BC00CF5FC5300E
:1001040068F388EE93E00E94BC0081E090E0CF9118
:0201140008954C
:1001160080E00E94CB0089E00E94ED008FEF0E94F4
:10012600ED0080E00E94E20080E00E94CB008AE0C1
:100136000E94ED008FE00E94ED0080E00E94E20048
:1001460080E00E94CB008BE00E94ED0083E00E94DD
:10015600ED0080E00E94E20080E00E94CB008CE08F
:100166000E94ED0081E00E94ED0080E00E94E20026
:020176000895EA
:1001780020E030E008C0EFECF7E03197F1F700C07D
:0E01880000002F5F3F4F28173907ACF3089592
:1001960098B321E030E002C0220F331F8A95E2F7C0
:0801A6002095292328BB0895D0
:1001AE008FEF87BB87B3877F87BB88B3816088BBA0
:0601BE0082E58DB90895F1
:1001C40098B321E030E002C0220F331F8A95E2F792
:0601D400292B28BB089551
:0801DA008FB9779BFECF089559
:0401E2000C94000079
:00000001FF
