:100000000C944C000C9485070C9485070C94850780
:100010000C9485070C9485070C9485070C94850730
:100020000C9485070C9485070C9485070C94850720
:100030000C9485070C9485070C9485070C94850710
:100040000C9485070C9485070C9485070C94850700
:100050000C9485070C9485070C9485070C948507F0
:100060000C9485070C9485070C9485070C948507E0
:100070000C9485070C9485070C9485070C948507D0
:100080000C9485070C9485070C948507010001608A
:10009000800160016100013311241FBECFEFD0E168
:1000A000DEBFCDBFECE8F0E040E019C0B791A7910A
:1000B00037912791079107FD0EC097918791EF0126
:1000C000F92FE82F0BBF07900D92A217B307D9F7AE
:1000D000FE011BBE04C01D92A217B307E1F7E83969
:1000E000F40721F70E94C5030C947600F894FFCF23
:1000F0002564006361726420666F756E64006C63D2
:100100006420696E69740072633532322076320081
:100110007263353232207631006E6F207263353271
:020120003200AB
:1001220020202020202020202020202020202020CD
:0101320000CC
:01013300FFCC
:100134002F923F924F926F927F928F929F92AF92A3
:10014400BF92CF92DF92EF92FF920F931F93CF93C0
:10015400DF93CDB7DEB762970FB6F894DEBF0FBE5C
:10016400CDBF6C013A01862E7901FC0110861782FD
:10017400848181FFEBC19E012F5F3F4F3D872C8718
:10018400C901A0E8888B998BAA8B9FE3992EF30170
:10019400582D0E947007862F662309F4D3C1482D79
:1001A40093012F5F3F4F4F4F653219F03901842E71
:1001B4000BC0F901542F0E947007862F92E0690E3C
:1001C400711C811C653229F4B60190E00E94780507
:1001D400DECFB12C00E010E01032A0F48B3269F0D5
:1001E40030F4803259F0833269F410612CC08D32BE
:1001F40039F0803339F4116026C01260146023C0D2
:10020400186021C017FD2AC090ED980F9A3078F439
:1002140016FF06C0AAE0BA9E900D1124B92E13C091
:10022400EAE00E9F900D1124092F10620CC08E324B
:1002340021F416FD87C1106406C08C3611F41068D1
:1002440002C0883659F4F301582D0E947007862F96
:10025400FFEF6F1A7F0A8F0A6111BECF982F9F7D1F
:100264009554933028F424E0E20EF11C99820FC0D7
:10027400833631F0833791F0833509F064C027C0A9
:10028400F7018081898397012E5F3F4F7901288888
:1002940039884A88AA24A394B12C17C0A7014D5FBA
:1002A4005F4F5F874E87F70120803180428016FFC1
:1002B40003C04B2D50E002C04FEF5FEF842DB1011E
:1002C4000E948E065C01EE84FF841F7718C097019C
:1002D4002D5F3F4F3F872E87F7012080318042807A
:1002E40016FF03C04B2D50E002C04FEF5FEF842D8B
:1002F400B1010E948E065C011068EE84FF8413FD38
:100304001EC0802F90E0A816B906C8F4B60180E29A
:1003140090E00E9478050150F4CFF101542D0E9421
:100324007007862FFFEF2F1A3F0A4F0AB60190E09D
:100334000E9478050111015021E0A21AB108A1140C
:10034400B10459F7F5C0843611F0893671F5F70117
:1003540017FF08C0608171818281938197012C5FAE
:100364003F4F09C060817181072E000C880B990BE7
:1003740097012E5F3F4F79011F76312E97FF0AC0F8
:1003840090958095709561957F4F8F4F9F4F312F3A
:100394003068332E2AE030E0AE014F5F5F4F0E9499
:1003A4005604482E4C85441A4AC0853729F41F7ECA
:1003B400A12E2AE030E025C0512F597FA52E8F367B
:1003C400C1F018F4883579F0BDC0803719F088374A
:1003D40021F0B8C0852F8061A82EA4FE0DC09A2DEF
:1003E4009460A92E09C014FF0AC0A52FA660AA2EE6
:1003F40006C028E030E005C020E130E002C020E182
:1004040032E0F701A7FE08C0608171818281938187
:10041400A7014C5F5F4F07C06081718180E090E06D
:10042400A7014E5F5F4F7A01AE014F5F5F4F0E949D
:100434005604482E5C85451A8A2D8F77382E36FE51
:100444000DC0932D9E7FA92E4B1458F434FE0BC07F
:1004540032FC09C0A32DAE7EAA2E05C0142DA32CF8
:1004640003C0142D01C01B2DA4FE0EC0FE01E40D1B
:10047400F11D8081803321F4EA2DE97EAE2E08C07F
:10048400A2FE05C01E5F04C08A2D867809F01F5F96
:10049400A3FC11C0A0FE06C0101788F4040DB02EF2
:1004A400B11A0EC0101760F4B60180E290E00E9409
:1004B40078051F5FF7CF101718F4011B02C0B42C86
:1004C40000E0A4FE10C0B60180E390E00E9478052D
:1004D400A2FE17C0A1FC03C088E790E002C088E533
:1004E40090E0B6010CC08A2D867859F0A1FE02C0B6
:1004F4008BE201C080E2A7FC8DE2B60190E00E948D
:1005040078054B1438F4B60180E390E00E94780536
:10051400BA94F7CF4A94E1E0F0E0EC0FFD1FE40D4C
:10052400F11D8081B60190E00E9478054110F2CF60
:10053400002309F42CCEB60180E290E00E947805F5
:100544000150F6CFF6018781908502C08FEF9FEFAF
:1005540062960FB6F894DEBF0FBECDBFDF91CF9188
:100564001F910F91FF90EF90DF90CF90BF90AF90CD
:100574009F908F907F906F904F903F902F90089511
:100584004F925F926F927F928F929F92AF92BF929F
:10059400CF92DF92EF92FF920F931F93CF93DF934B
:1005A400D82F7B01C42F59018C3029F08E3061F093
:1005B400912C812C10C00F2EF0E39F2EF02D0F2EC6
:1005C400F7E78F2EF02D07C06894992494F80F2E26
:1005D400F2E18F2EF02D84E00E94F606682F6F77EB
:1005E40084E00E94BF068AE00E94F606682F6068D5
:1005F4008AE00E94BF0660E081E00E94BF06412CB1
:10060400512C32010CC0F701E40DF51D608189E025
:100614000E94BF068FEF481A580A680A780A8C2F7E
:1006240090E0A0E0B0E0481659066A067B0658F34D
:100634006D2F81E00E94BF06DC3041F48DE00E9402
:10064400F606682F60688DE00E94BF060F2EF0ED5D
:10065400CF2EF7E0DF2EE12CF12CF02D84E00E9468
:10066400F606C82FE1E0CE1AD108E108F10829F016
:1006740080FD03C0892D8C2389F386E00E94F60651
:1006840083B98DE00E94F606682F6F778DE00E9493
:10069400BF06CD28CE28CF2809F460C086E00E948A
:1006A400F6068B7109F05CC0C821C0FD02C0C1E030
:1006B40001C0C2E0DC3009F054C08AE00E94F606B2
:1006C400D82F8CE00E94F606282F2770A9F08D2FD2
:1006D40090E00197880F991F880F991F880F991F21
:1006E400820F911D092E000CAA0BBB0BF80180830D
:1006F4009183A283B38311C08D2F90E0880F991F3B
:10070400880F991F880F991F092E000CAA0BBB0B89
:10071400F80180839183A283B383D11101C0D1E016
:10072400D13108F0D0E1C12CD12C76010DC0850166
:100734000C0D1D1D89E00E94F606F8018083FFEF71
:10074400CF1ADF0AEF0AFF0A8D2F90E0A0E0B0E095
:10075400C816D906EA06FB0650F303C0C3E001C07D
:10076400C3E08C2FDF91CF911F910F91FF90EF90F9
:10077400DF90CF90BF90AF909F908F907F906F90BD
:060784005F904F90089504
:10078A000E94B40484E690E00E9416076EEF70E0BF
:10079A0080E00E94AA068FEF82B90E94690784E668
:1007AA0090E00E9416070E94680687E30E94F606F8
:1007BA00809360018AE090E00E94160780916001B0
:1007CA00823931F467E071E080E00E94AA060EC027
:1007DA008059823030F460E171E080E00E94AA061C
:1007EA0005C069E171E080E00E94AA06809160017B
:1007FA0083B982E00E94F60680936001682F6062E6
:10080A0082E00E94BF0683E00E94F60680936001A0
:10081A00682F606883E00E94BF068CED95E00E9415
:10082A00160760E571E082E50E94B40580936001D5
:10083A0090E00E9441068091600183B98091600135
:10084A00813051F50E941906892B59F380E591E010
:10085A000E94FF048093600183B980E090E00E94C7
:10086A0081071092600110C0F0E0E05BFE4F8081CA
:10087A0090E00E94410688EE93E00E94160780915C
:10088A0060018F5F80936001E0916001E83060F35E
:10089A008AEF90E00E94160788EE93E00E941607FE
:0208AA00C0CFBD
:1008AC00FA01AA27283051F1203181F1E8946F9395
:1008BC006E7F6E5F7F4F8F4F9F4FAF4FB1E03ED03B
:1008CC00B4E03CD0670F781F891F9A1FA11D680FD9
:1008DC00791F8A1F911DA11D6A0F711D811D911D0C
:1008EC00A11D20D009F468943F912AE0269F112481
:1008FC003019305D3193DEF6CF010895462F4770E5
:10090C00405D4193B3E00FD0C9F7F6CF462F4F703F
:10091C00405D4A3318F0495D31FD4052419302D09D
:10092C00A9F7EACFB4E0A695979587957795679543
:10093C00BA95C9F700976105710508959B01AC0143
:10094C000A2E06945795479537952795BA95C9F76A
:0C095C00620F731F841F951FA01D0895DB
:100968001F93CF93DF93CDB7DEB761970FB6F89497
:10097800DEBF0FBECDBF8FEF84BB15BA10E215BB2B
:100988000E94070715BB0E94070780E885BB0E94E5
:10099800070715BA0E94070780EF85BB0E94070763
:1009A80015BA0E94070780E685BB0E94070722E266
:1009B80031E040E081E1F901DE011196742F0E94D7
:1009C800340780E090E00E948107CE0101960E94E2
:1009D800420788E290E00E948107CE0101960E94BA
:1009E800420761960FB6F894DEBF0FBECDBFDF9108
:0609F800CF911F9108954C
:1009FE00CF92DF92EF92FF920F931F93CF93DF93DD
:100A0E0000D000D0CDB7DEB77C01FC01C080D18014
:100A1E000281138160E08DE00E94BF0680E6F7013F
:100A2E00808381E0818393ED928387EF8383948328
:100A3E00858396838783C086D186028713878E012E
:100A4E000F5F1F4F97014CE0B7018EE00E94C2026C
:100A5E000F900F900F900F90DF91CF911F910F91EC
:0A0A6E00FF90EF90DF90CF90089505
:100A7800EF92FF920F931F93CF93DF9300D000D094
:100A8800CDB7DEB77C0160E08DE00E94BF0683E948
:100A9800F701808380E281838E010F5F1F4F9701EA
:100AA80042E0B7018CE00E94C202813091F407C095
:100AB800F701E90FF11D308123279F5F02C020E075
:100AC80090E09430A8F3F701E90FF11D9081291304
:100AD80083E00F900F900F900F90DF91CF911F91AF
:080AE8000F91FF90EF900895BB
:100AF0000F931F93CF93DF93FB01248121FD03C04C
:100B00008FEF9FEF2CC022FF16C0478150852581B3
:100B100036814217530744F4A081B1819D012F5FB4
:100B20003F4F318320838C93278130852F5F3F4F48
:100B30003087278314C08B01EC01FB010184F2850F
:100B4000E02D0995892BE1F6D80117968D919C919E
:100B50001897019618969C938E931797CE01DF9164
:080B6000CF911F910F91089540
:100B6800EF92FF920F931F93CF93DF9300D000D0A3
:100B7800CDB7DEB7182F7B0167E08DE00E94BF0676
:100B8800F70110838E010F5F1F4F970141E0B701F6
:100B98008CE00E94C202813051F449815A816B81F4
:100BA8007C81403151056105710519F403C083E06A
:100BB80001C083E00F900F900F900F90DF91CF91BD
:0A0BC8001F910F91FF90EF90089528
:100BD2000F931F93CF93DF93CDB7DEB72F970FB647
:100BE200F894DEBF0FBECDBF0E891F8986E08D83CC
:100BF2001A8309838FEF9FE79F838E839E01255E71
:100C02003F4F488D598D6A8DCE0101960E949A0000
:100C1200E885F985E00FF11F10822F960FB6F89440
:100C2200DEBF0FBECDBFDF91CF911F910F9108950F
:100C320063EF70E080E00E94AA0680E591E00E94E6
:100C42003C058093600183B9809160018130A9F4F1
:100C520080E090E00E9481071092600103C08F5FE4
:100C620080936001809160018830C8F38AEF90E040
:100C72000E94160781E090E0089580E090E00895D8
:100C8200CF93DF93C82FD92F0E945C0780E091E0B9
:100C92000E944F07DF93CF9380EF90E0A0E0AF93E5
:100CA2009F938F9380E091E09F938F930E94E90539
:100CB20080E091E00E944F078DB79EB707960FB66E
:0E0CC200F8949EBF0FBE8DBFDF91CF910895B5
:100CD0000E9477076DE88AE20E94BF066EE38BE20E
:100CE0000E94BF066EE18CE20E94BF0660E08DE2CA
:100CF0000E94BF0660E485E10E94BF066DE381E1CA
:100D00000E94BF0684E10E94F606982F937029F492
:0C0D1000682F636084E10E94BF06089514
:100D1C00CF92DF92EF926B01E82E9A01A82FCB01B4
:100D2C002115310531F48C199D09EF90DF90CF908E
:100D3C000895FC015A2F0E9470076623A1F30196B7
:080D4C00A11D21503109ECCF7B
:100D5400CF92DF92EF926B01E82E0E945C076E2D1A
:100D6400A60180E091E00E94250780E091E00E94C6
:0A0D74004F07EF90DF90CF90089535
:100D7E00CF93C62F98B39E7F98BB90E0880F991F94
:100D8E008E770E947C078C2F0E947C0788B381602F
:060D9E0088BBCF9108950F
:100DA400CF93C82F85BB85B38B7F85BB0E94070774
:100DB400C295C07FC5BB85B38B7F85BB0E940707E7
:040DC400CF9108952E
:100DC800CF93C82F85BB85B3846085BB0E94070776
:100DD800C295C07FC5BB85B3846085BB0E940707E9
:040DE800CF9108950A
:100DEC0098B39E7F98BB90E0880F991F8E77806890
:100DFC000E947C0780E00E947C0798B3916098BBAE
:020E0C00089547
:100E0E0085B3886085BB81E090E00E94160785B3AC
:0E0E1E00877F85BB81E090E00E941607089553
:100E2C0020E030E008C0E3ECF9E03197F1F700C0C6
:0E0E3C0000002F5F3F4F28173907ACF30895D1
:100E4A009A01462FDC01F901542F0E9470076D9315
:0E0E5A00662321F02F5F3F4F4F4FF5CF0895D5
:100E6800992777FD06C07BBF07900D920197E1F7A0
:0C0E7800089501900D920197E1F7089594
:100E8400CF93DF93EC0103C00E94E406219688818E
:0A0E94008111FACFDF91CF9108958C
:100E9E00CF93DF93EC0180E090E00E948107CE01BA
:0A0EAE000E944207DF91CF910895E2
:100EB80080E090E006C0FC01E050FF4F20E2208374
:0A0EC800019680319105B8F30895FA
:0E0ED20087B3876087BB8DB181658DB90895A8
:0E0EE00057FD03C05BBF6791089560810895C0
:0A0EEE006FE081E00E94BF06089546
:0A0EF8008FB9779BFECF8FB10895EC
:080F020080680E94D2060895E8
:040F0A000C94000043
:00000001FF
