:100000000C9449000C9480030C9480030C9480039E
:100010000C9480030C9480030C9480030C94800354
:100020000C9480030C9480030C9480030C94800344
:100030000C9480030C9480030C9480030C94800334
:100040000C9480030C9480030C9480030C94800324
:100050000C9480030C9480030C9480030C94800314
:100060000C9480030C9480030C9480030C94800304
:100070000C9480030C9480030C9480030C948003F4
:100080000C9480030C9480030C94800301000108FD
:10009000800011241FBECFEFD0E1DEBFCDBFECE862
:1000A000F0E040E019C0B791A791379127910791EF
:1000B00007FD0EC097918791EF01F92FE82F0BBF35
:1000C00007900D92A217B307D9F7FE011BBE04C01B
:1000D0001D92A217B307E1F7E139F40721F70E9457
:0A00E000E1020C947300F894FFCFC6
:1000EA00000000000000000017151D007C107C00B5
:1000FA0017151D006C106C001F1511006C106C0098
:10010A001F151100047C04001F1511003C643C00FB
:10011A001F051F007C106C001F150A007C40400060
:10012A001F150A005C5474001F041F00047C04009D
:10013A001F1010007C1404000F100F00047C040030
:10014A001F0501007C1404001F1111007C345C009F
:10015A0017151D007C447C0017151D00447C4400C3
:10016A001F110E007C4040001F110E00487C400009
:10017A001F110E0074545C001F110E0044547C00C1
:10018A001F110E001C107C001F011F007C106C0048
:10019A0017151D001C701C001F1511007C54280027
:1001AA001F1111007C047C001F1511007C087C00C3
:1001BA0000060F59510706001F1511007C44440020
:1001CA001F0501005C5474001F111D005C5474006B
:1001DA001F0D17005C5474001F101F005C5474003C
:1001EA0000000000000000000000006F6F07000020
:1001FA000707030007070300147F7F147F7F14009B
:10020A002E2E6A6B7B3A3A0067773B1C6E77730037
:10021A00787F4F497D7D080000000407070300002E
:10022A0000001C3E73614000004061733E1C0000E8
:10023A00082A3E1C1C3E2A080008083E3E08080000
:10024A000080E0E06000000018181818080808008C
:10025A000000C0C0C0000000406030180C06030156
:10026A00787F7F41417F7F000000717F7F7070003F
:10027A007B7B7949494F4F00494949497F7F78003B
:10028A001F1F10707C7C10006F6F494979797900C3
:10029A007F7F7949497B7B0001010101797F7F00DA
:1002AA00787F7F49497F7F000F0F0909797F7F0097
:1002BA0000006666660000000080E6E66600000050
:1002CA0000081C36634100000014141414141400AE
:1002DA00004163361C08000003035959590F0F00E7
:1002EA007F7F415D5D5F5F00787F7F09097F7F00C7
:1002FA007F7F49497F7F7800707F7F414163630038
:10030A007F7F79417F7F7800707F7F494941410033
:10031A00787F7F0909010100787F7F41497B7B0053
:10032A00787F7F08087F7F000000007F7F780000C9
:10033A00707040407F7F78007F7F080C7F7B780059
:10034A0000787F7F404040007F7F7306037F7F00F5
:10035A00787F7F01017F7F00787F7F41417F7F0027
:10036A00707F7F09090F0F003F3F2121797F7F00AE
:10037A007F7F79090F7F780077777545457D7D0006
:10038A0001017F7F79010100707F7F40407F7F00FC
:10039A007F7F7860301F0F007F7F3338307F7F0088
:1003AA00777F0F08787F77000F0F78787F0F0F001D
:1003BA00006171796D67630000007F7F4141000031
:1003CA000103060C18306040000041417F7F0000A5
:1003DA00080C0603060C08008080808080808080DC
:1003EA00000000010306040074747454547C7C00F9
:1003FA007F7F7444447C7C007C7C74444444440085
:10040A007C7C7444447F7F007C7C7454545C5C0024
:10041A0008087F7F79090100BCBCA4A4F4FCFC0095
:10042A007F7F7404047C7C0000007A7A72000000EA
:10043A00C0C08080FAFAE0007E7E70181C747000DA
:10044A0000007F7F700000007C7C641C047C7C00C0
:10045A007C7C7404047C7C007C7C7444447C7C003A
:10046A00FCFCE424243C3C003C3C2424E4FCFC004A
:10047A007C7C7404040C0C005C5C5454747474002A
:10048A0004047F7F7C4440007C7C7040407C7C007C
:10049A007C7C7060301C0C007C7C4C70407C7C0046
:1004AA006C6C7010106C6C00BCBCB8A0A0FCFC009A
:1004BA00446474745C4C44000008083E774141006F
:1004CA000000007F7F000000004141773E080800DD
:0804DA0002030103020301000B
:1004E200CF93DF93C82F0E9468038C2F0E945E0374
:1004F20081E20E945E030E947C030E9468038C2FAB
:100502000E945E0380EA0E945E030E947C030E94B6
:1005120068038C2F0E945E0381EE0E945E030E949C
:100522007C030E9468038C2F0E945E0381E80E9474
:100532005E030E947C030E9468038C2F0E945E036C
:1005420080E00E945E03D0E0C5E50EC0C09520E8C1
:10055200C29FC00111249C2F9695892B0E945E0395
:1005620080E00E945E03DF5FD83080F30E947C034C
:06057200DF91CF91089516
:10057800CF930E94680384EE0E945E0380E00E948D
:100588005E03C0E014C0E7E0F0E0EC1BF109E050C6
:10059800FF4F908180E8989F90011124892F8695BC
:1005A800822B0E945E0380E00E945E03CF5FC8300A
:0A05B80050F30E947C03CF910895D8
:1005C2000E94760384EF91E00E944403C0E0D0E0F1
:1005D200CE016EE770E00E941C0340E060E00E94E2
:1005E200020384EF91E00E9444030E94BC020E9435
:1005F200530384EF91E00E9444030E94BC022196BF
:02060200E7CF40
:1006040020E030E013C0E82FF0E0EE0FFF1FEE0F04
:10061400FF1FEE0FFF1FE651FF4FE20FF31F9491F0
:10062400F901E050FF4F90832F5F3F4F2830310591
:0406340054F30895DE
:1006380097FB072E16F4009407D077FD09D00E9487
:10064800300307FC05D03EF4909581959F4F08959F
:08065800709561957F4F089534
:10066000AA1BBB1B51E107C0AA1FBB1FA617B707D8
:1006700010F0A61BB70B881F991F5A95A9F78095F4
:080680009095BC01CD01089525
:1006880020E030E008C0EFECF7E03197F1F700C068
:0E06980000002F5F3F4F28173907ACF308957D
:1006A60080E006C0E82FF0E0E050FF4F10828F5F39
:0606B6008730C0F3089537
:1006BC008093730084E88093740080917400882385
:0406CC00E4F70895B2
:1006D00084EA80937400809174008823E4F708957D
:0C06E0001092710080E280937000089579
:0C06EC000E94700384EE0E9471020895C9
:0806F80084E980937400089569
:040700000C94000055
:00000001FF
