:100000000C944C000C943B070C943B070C943B075E
:100010000C943B070C943B070C943B070C943B0758
:100020000C943B070C943B070C943B070C943B0748
:100030000C943B070C943B070C943B070C943B0738
:100040000C943B070C943B070C943B070C943B0728
:100050000C943B070C943B070C943B070C943B0718
:100060000C943B070C943B070C943B070C943B0708
:100070000C943B070C943B070C943B070C943B07F8
:100080000C943B070C943B070C943B070100016E5A
:1000900080016E016F000E7A11241FBECFEFD0E1F8
:1000A000DEBFCDBFECE8F0E040E019C0B791A7910A
:1000B00037912791079107FD0EC097918791EF0126
:1000C000F92FE82F0BBF07900D92A217B307D9F7AE
:1000D000FE011BBE04C01D92A217B307E1F7E83969
:1000E000F40721F70E94A3030C947600F894FFCF45
:1000F000000000000000000017151D007C107C00AF
:1001000017151D006C106C001F1511006C106C0091
:100110001F151100047C04001F1511003C643C00F5
:100120001F051F007C106C001F150A007C4040005A
:100130001F150A005C5474001F041F00047C040097
:100140001F1010007C1404000F100F00047C04002A
:100150001F0501007C1404001F1111007C345C0099
:1001600017151D007C447C0017151D00447C4400BD
:100170001F110E007C4040001F110E00487C400003
:100180001F110E0074545C001F110E0044547C00BB
:100190001F110E001C107C001F011F007C106C0042
:1001A00017151D001C701C001F1511007C54280021
:1001B0001F1111007C047C001F1511007C087C00BD
:1001C00000060F59510706001F1511007C4444001A
:1001D0001F0501005C5474001F111D005C54740065
:1001E0001F0D17005C5474001F101F005C54740036
:1001F00000000000000000000000006F6F0700001A
:100200000707030007070300147F7F147F7F140094
:100210002E2E6A6B7B3A3A0067773B1C6E77730031
:10022000787F4F497D7D0800000004070703000028
:1002300000001C3E73614000004061733E1C0000E2
:10024000082A3E1C1C3E2A080008083E3E080800FA
:100250000080E0E060000000181818180808080086
:100260000000C0C0C0000000406030180C06030150
:10027000787F7F41417F7F0078187818183C243CB4
:100280007B7B7949494F4F00494949497F7F780035
:100290001F1F10707C7C10006F6F494979797900BD
:1002A0007F7F7949497B7B0001010101797F7F00D4
:1002B000787F7F49497F7F000F0F0909797F7F0091
:1002C00000006666660000000080E6E6660000004A
:1002D00000081C36634100000014141414141400A8
:1002E000004163361C08000003035959590F0F00E1
:1002F0007F7F415D5D5F5F00787F7F09097F7F00C1
:100300007F7F49497F7F7800707F7F414163630031
:100310007F7F79417F7F7800707F7F49494141002D
:10032000787F7F0909010100787F7F41497B7B004D
:10033000787F7F08087F7F000000007F7F780000C3
:10034000707040407F7F78007F7F080C7F7B780053
:1003500000787F7F404040007F7F7306037F7F00EF
:10036000787F7F01017F7F00787F7F41417F7F0021
:10037000707F7F09090F0F003F3F2121797F7F00A8
:100380007F7F79090F7F780077777545457D7D0000
:1003900001017F7F79010100707F7F40407F7F00F6
:1003A00040C080E0781E07017F7F3338307F7F00B8
:1003B00000422418182442000F0F78787F0F0F0096
:1003C000006171796D67630000007F7F414100002B
:1003D0000103060C18306040000041417F7F00009F
:1003E000080C0603060C08008080808080808080D6
:1003F000000000010306040074747454547C7C00F3
:100400007F7F7444447C7C007C7C7444444444007E
:100410007C7C7444447F7F007C7C7454545C5C001E
:1004200008087F7F79090100BCBCA4A4F4FCFC008F
:100430007F7F7404047C7C0000007A7A72000000E4
:10044000C0C08080FAFAE0007E7E70181C747000D4
:1004500000007F7F700000007C7C641C047C7C00BA
:100460007C7C7404047C7C007C7C7444447C7C0034
:10047000FCFCE424243C3C003C3C2424E4FCFC0044
:100480007C7C7404040C0C005C5C54547474740024
:1004900004047F7F7C4440007C7C7040407C7C0076
:1004A0007C7C7060301C0C007C7C4C70407C7C0040
:1004B0006C6C7010106C6C00BCBCB8A0A0FCFC0094
:1004C000446474745C4C44000008083E7741410069
:1004D0000000007F7F000000004141773E080800D7
:0804E000020301030203010005
:1004E8002564007263353232207632007263353209
:1004F80032207631006E6F207263353232006C63C1
:100508006420696E6974005363616E206D61737451
:100518006572206B6579006B65792077617320734C
:1005280065740070726573656E74206B6579006B15
:10053800657920696E76616C6964006B65792076EF
:05054800616C69640014
:10054D00202020202020202020202020202020209E
:01055D00009D
:10055E004F925F926F927F928F929F92AF92BF92C5
:10056E00CF92DF92EF92FF920F931F93CF93DF9371
:10057E00D82F7B01C42F59018C3029F08E3061F0B9
:10058E00912C812C10C00F2EF0E39F2EF02D0F2EEC
:10059E00F7E78F2EF02D07C06894992494F80F2E4C
:1005AE00F2E18F2EF02D682D606882E00E94240605
:1005BE0060E884E00E948C0660E88AE00E94C7062C
:1005CE0060E081E00E942406412C512C32010CC0C7
:1005DE00F701E40DF51D608189E00E9424068FEF7E
:1005EE00481A580A680A780A8C2F90E0A0E0B0E00A
:1005FE00481659066A067B0658F36D2F81E00E9455
:10060E002406DC3021F460E88DE00E94C7060F2E30
:10061E00F0EDCF2EF7E0DF2EE12CF12CF02D84E063
:10062E000E946C06C82FE1E0CE1AD108E108F1084D
:10063E0029F080FD03C0892D8C2389F360E88DE0BD
:10064E000E948C06CD28CE28CF2809F460C086E003
:10065E000E946C068B7109F05CC0C821C0FF02C0FD
:10066E00C2E001C0C1E0DC3009F054C08AE00E9453
:10067E006C06D82F8CE00E946C06282F2770A9F0EC
:10068E008D2F90E00197880F991F880F991F880F63
:10069E00991F820F911D092E000CAA0BBB0BF8019E
:1006AE0080839183A283B38311C08D2F90E0880F36
:1006BE00991F880F991F880F991F092E000CAA0BDE
:1006CE00BB0BF80180839183A283B383D11101C048
:1006DE00D1E0D13108F0D0E1C12CD12C76010DC082
:1006EE0085010C0D1D1D89E00E946C06F8018083AA
:1006FE00FFEFCF1ADF0AEF0AFF0A8D2F90E0A0E07E
:10070E00B0E0C816D906EA06FB0650F303C0C3E0F4
:10071E0001C0C3E08C2FDF91CF911F910F91FF90FD
:10072E00EF90DF90CF90BF90AF909F908F907F9083
:08073E006F905F904F90089549
:100746000E946D048AE090E00E949B060E94B80415
:100756008AE090E00E949B0666E075E080E00E94D9
:100766000B060E94230784EF91E00E949B0640E05F
:1007760060E081E30E94D3058AE090E00E949B0638
:100786008091680190916901A0916A01B0916B0115
:10079600892B8A2B8B2B01F580916C0190916D0131
:1007A600892BD1F481E090E090936D0180936C01E8
:1007B6006FE075E080E00E940B060E94EF056093F3
:1007C60068017093690180936A0190936B016FE1F0
:1007D60075E080E00E940B066BE275E080E00E9407
:1007E6000B0640E060E08FE30E94D3050E94EF0510
:1007F600009168011091690120916A0130916B01A5
:10080600601771078207930759F067E375E080E088
:100816000E940B0640E060E088E50E94D305ACCF5D
:1008260063E475E080E00E940B0640E060E086E548
:0E0836000E94D30588EE93E00E949B069DCFA2
:10084400CF93DF93C82F0E9407078C2F0E94FD06C9
:1008540081E20E94FD060E9433070E9407078C2F45
:100864000E94FD0680EA0E94FD060E9433070E9452
:1008740007078C2F0E94FD0681EE0E94FD060E9450
:1008840033070E9407078C2F0E94FD0681E80E940F
:10089400FD060E9433070E9407078C2F0E94FD0665
:1008A40080E00E94FD06D0E0C5E50EC0C09520E8BA
:1008B400C29FC00111249C2F9695892B0E94FD068E
:1008C40080E00E94FD06DF5FD83080F30E9433078A
:0608D400DF91CF910895B1
:1008DA001F93CF93DF93CDB7DEB761970FB6F89426
:1008EA00DEBF0FBECDBF8FEF84BB15BA10E215BBBA
:1008FA000E947D0615BB0E947D0680E885BB0E948A
:10090A007D0615BA0E947D0680EF85BB0E947D0692
:10091A0015BA0E947D0680E685BB0E947D062DE4FD
:10092A0035E040E081E1F901DE011196742F0E9461
:10093A00D50680E090E00E943707CE0101960E941A
:10094A00E30688E290E00E943707CE0101960E94F2
:10095A00E30661960FB6F894DEBF0FBECDBFDF91F6
:06096A00CF911F910895DA
:100970000E940F078AE090E00E949B060E94670594
:1009800087E30E946C0680936E018AE090E00E94EB
:100990009B0680916E01823931F46BEE74E080E049
:1009A0000E940B060EC08059823030F464EF74E070
:1009B00080E00E940B0605C06DEF74E080E00E94AD
:1009C0000B0682E00E946C0680936E01682F6062C5
:1009D00082E00E94240683E00E946C0680936E01F0
:0C09E000682F606883E00E9424060895E0
:1009EC00EF92FF920F931F93CF93DF9300D000D021
:1009FC00CDB7DEB77C0160E08DE00E94240683E970
:100A0C00F701808380E281838E010F5F1F4F970176
:100A1C0042E0B7018CE00E94AF02813091F407C034
:100A2C00F701E90FF11D308123279F5F02C020E001
:100A3C0090E09430A8F3F701E90FF11D9081291390
:100A4C0083E00F900F900F900F90DF91CF911F913B
:080A5C000F91FF90EF90089547
:100A6400EF92FF920F931F93CF93DF9300D000D0A8
:100A7400CDB7DEB7182F7B0167E08DE00E94240616
:100A8400F70110838E010F5F1F4F970141E0B701FB
:100A94008CE00E94AF02813051F449815A816B810C
:100AA4007C81403151056105710519F403C083E06F
:100AB40001C083E00F900F900F900F90DF91CF91C2
:0A0AC4001F910F91FF90EF9008952D
:100ACE000E9429076DE88AE20E9424066EE38BE2FB
:100ADE000E9424066EE18CE20E94240660E08DE204
:100AEE000E94240660E485E10E9424066DE381E104
:100AFE000E94240684E10E946C06982F937029F4BC
:0C0B0E00682F636084E10E9424060895B3
:100B1A00CF930E94070784EE0E94FD0680E00E94A0
:100B2A00FD06C0E014C0E7E0F0E0EC1BF109E0507C
:100B3A00FF4F908180E8989F90011124892F869514
:100B4A00822B0E94FD0680E00E94FD06CF5FC8301E
:0A0B5A0050F30E943307CF91089575
:100B6400CF92DF92EF92FF92DC0120E030E060E070
:100B740070E0CB010EC0CC24D62EE72EF82EFD015A
:100B8400E20FF31F4081C701B601642B10822F5F6F
:100B94003F4F243031057CF3FF90EF90DF90CF90EE
:020BA4000895B2
:100BA60020E030E013C0E82FF0E0EE0FFF1FEE0F5D
:100BB600FF1FEE0FFF1FE051FF4FE20FF31F94914F
:100BC600F901E050FF4F90832F5F3F4F28303105EA
:080BD60054F30E948D050895FF
:100BDE0068E571E082E50E94320580936E018130F6
:100BEE0029F08AE090E00E949B06F2CF0E94B9069F
:100BFE00892B29F088E591E00E94B20508958AE0DC
:080C0E0090E00E949B06E4CF78
:100C1600CF92DF92EF926B01E82E0E94F00688E0F9
:100C260091E00E945B066E2DA60188E091E00E948D
:100C3600AA0688E091E00E945B06EF90DF90CF90D5
:020C460008950F
:100C4800CF93C62F98B39E7F98BB90E0880F991FCB
:100C58008E770E942E078C2F0E942E0788B3816002
:060C680088BBCF91089546
:100C6E00CF93C82F85BB85B38B7F85BB0E947D0636
:100C7E00C295C07FC5BB85B38B7F85BB0E947D06A9
:040C8E00CF91089565
:100C9200CF93C82F85BB85B3846085BB0E947D0638
:100CA200C295C07FC5BB85B3846085BB0E947D06AB
:040CB200CF91089541
:100CB600CF93DF93EC0180E090E00E943707CE01EE
:100CC6000E94E30684E690E00E949B06DF91CF91A6
:020CD60008957F
:100CD80098B39E7F98BB90E0880F991F8E778068A5
:100CE8000E942E0780E00E942E0798B3916098BB5F
:020CF80008955D
:100CFA0085B3886085BB81E090E00E949B0685B33E
:0E0D0A00877F85BB81E090E00E949B060895E4
:100D1800CF93DF93D82FC62F0E946C06C0956C2FF7
:0E0D280068238D2F0E942406DF91CF9108953D
:100D360020E030E008C0EFECF7E03197F1F700C0B3
:0E0D460000002F5F3F4F28173907ACF30895C8
:100D54009A01462FDC01F901542F0E9416076D9366
:0E0D6400662321F02F5F3F4F4F4FF5CF0895CC
:100D720088E591E00E94F60480936E01813019F0BB
:0C0D820080E090E0089581E090E008958A
:100D8E00CF93DF93D82FC62F0E946C06682F6C2B43
:0C0D9E008D2F0E942406DF91CF91089554
:100DAA00992777FD06C07BBF07900D920197E1F75F
:0C0DBA00089501900D920197E1F7089553
:100DC600CF93DF93EC0103C00E94490621968881E8
:0A0DD6008111FACFDF91CF9108954B
:100DE00080E090E006C0FC01E85FFE4F20E2208337
:0A0DF000019680319105B8F30895D3
:100DFA008093730084E88093740080917400882340
:040E0A00E4F708956C
:100E0E0084EA80937400809174008823E4F7089537
:0E0E1E0087B3876087BB8DB181658DB908955C
:0E0E2C0057FD03C05BBF679108956081089574
:0C0E3A001092710080E280937000089517
:0C0E46000E941D0784EE0E942204089503
:0A0E52006FE081E00E94240608957D
:0A0E5C008FB9779BFECF8FB1089588
:080E660084E9809374000895F3
:080E6E0080680E943706089518
:040E76000C940000D8
:010E7A00FF78
:00000001FF
